{
  "contractName": "Defi321",
  "abi": [
    {
      "inputs": [
        {
          "internalType": "address",
          "name": "_rewardToken",
          "type": "address"
        }
      ],
      "stateMutability": "nonpayable",
      "type": "constructor"
    },
    {
      "inputs": [],
      "name": "owner",
      "outputs": [
        {
          "internalType": "address",
          "name": "",
          "type": "address"
        }
      ],
      "stateMutability": "view",
      "type": "function",
      "constant": true
    },
    {
      "inputs": [],
      "name": "rewardToken",
      "outputs": [
        {
          "internalType": "address",
          "name": "",
          "type": "address"
        }
      ],
      "stateMutability": "view",
      "type": "function",
      "constant": true
    },
    {
      "inputs": [
        {
          "internalType": "address",
          "name": "_fromTokenAddress",
          "type": "address"
        },
        {
          "internalType": "address",
          "name": "_toTokenAddress",
          "type": "address"
        },
        {
          "internalType": "uint256",
          "name": "_amount",
          "type": "uint256"
        }
      ],
      "name": "swap",
      "outputs": [],
      "stateMutability": "payable",
      "type": "function",
      "payable": true
    },
    {
      "inputs": [
        {
          "internalType": "address",
          "name": "_tokenAAddress",
          "type": "address"
        },
        {
          "internalType": "address",
          "name": "_tokenBAddress",
          "type": "address"
        },
        {
          "internalType": "uint256",
          "name": "_amountA",
          "type": "uint256"
        },
        {
          "internalType": "uint256",
          "name": "_amountB",
          "type": "uint256"
        }
      ],
      "name": "provideLiquidity",
      "outputs": [],
      "stateMutability": "payable",
      "type": "function",
      "payable": true
    },
    {
      "inputs": [
        {
          "internalType": "address",
          "name": "_tokenA",
          "type": "address"
        },
        {
          "internalType": "address",
          "name": "_tokenB",
          "type": "address"
        }
      ],
      "name": "getPairId",
      "outputs": [
        {
          "internalType": "bytes32",
          "name": "",
          "type": "bytes32"
        }
      ],
      "stateMutability": "pure",
      "type": "function",
      "constant": true
    },
    {
      "inputs": [
        {
          "internalType": "address",
          "name": "_tokenAAddress",
          "type": "address"
        },
        {
          "internalType": "address",
          "name": "_tokenBAddress",
          "type": "address"
        },
        {
          "internalType": "uint256",
          "name": "_amountA",
          "type": "uint256"
        },
        {
          "internalType": "uint256",
          "name": "_amountB",
          "type": "uint256"
        }
      ],
      "name": "withdrawLiquidity",
      "outputs": [],
      "stateMutability": "payable",
      "type": "function",
      "payable": true
    },
    {
      "inputs": [],
      "name": "claim",
      "outputs": [],
      "stateMutability": "nonpayable",
      "type": "function"
    },
    {
      "inputs": [
        {
          "internalType": "bytes32",
          "name": "pairId",
          "type": "bytes32"
        }
      ],
      "name": "calculateReward",
      "outputs": [],
      "stateMutability": "nonpayable",
      "type": "function"
    },
    {
      "inputs": [],
      "name": "getPrice",
      "outputs": [
        {
          "internalType": "uint256",
          "name": "",
          "type": "uint256"
        }
      ],
      "stateMutability": "view",
      "type": "function",
      "constant": true
    },
    {
      "inputs": [
        {
          "internalType": "address",
          "name": "_addressA",
          "type": "address"
        },
        {
          "internalType": "address",
          "name": "_addressB",
          "type": "address"
        }
      ],
      "name": "createPool",
      "outputs": [],
      "stateMutability": "nonpayable",
      "type": "function"
    },
    {
      "inputs": [
        {
          "internalType": "bytes32",
          "name": "pairId",
          "type": "bytes32"
        }
      ],
      "name": "existOwnReceipt",
      "outputs": [
        {
          "internalType": "bool",
          "name": "",
          "type": "bool"
        }
      ],
      "stateMutability": "view",
      "type": "function",
      "constant": true
    },
    {
      "inputs": [
        {
          "internalType": "bytes32",
          "name": "pairId",
          "type": "bytes32"
        }
      ],
      "name": "getOwnReceiptIndex",
      "outputs": [
        {
          "internalType": "uint256",
          "name": "",
          "type": "uint256"
        }
      ],
      "stateMutability": "view",
      "type": "function",
      "constant": true
    },
    {
      "inputs": [],
      "name": "getCurrentReward",
      "outputs": [
        {
          "internalType": "uint256",
          "name": "",
          "type": "uint256"
        }
      ],
      "stateMutability": "view",
      "type": "function",
      "constant": true
    },
    {
      "inputs": [
        {
          "internalType": "bytes32",
          "name": "pairId",
          "type": "bytes32"
        }
      ],
      "name": "getPool",
      "outputs": [
        {
          "components": [
            {
              "internalType": "bytes32",
              "name": "id",
              "type": "bytes32"
            },
            {
              "internalType": "address",
              "name": "tokenA",
              "type": "address"
            },
            {
              "internalType": "address",
              "name": "tokenB",
              "type": "address"
            },
            {
              "internalType": "uint256",
              "name": "totalA",
              "type": "uint256"
            },
            {
              "internalType": "uint256",
              "name": "totalB",
              "type": "uint256"
            },
            {
              "internalType": "uint256",
              "name": "currentFee",
              "type": "uint256"
            }
          ],
          "internalType": "struct Defi321.Pool",
          "name": "",
          "type": "tuple"
        }
      ],
      "stateMutability": "view",
      "type": "function",
      "constant": true
    }
  ],
  "bytecode": "0x6080604052600280556103e860035534801561001a57600080fd5b506040516119d53803806119d58339810160408190526100399161006c565b60008054336001600160a01b031991821617909155600180549091166001600160a01b039290921691909117905561009a565b60006020828403121561007d578081fd5b81516001600160a01b0381168114610093578182fd5b9392505050565b61192c806100a96000396000f3fe6080604052600436106100dd5760003560e01c806398d5fdca1161007f578063e343361511610059578063e34336151461020e578063e961ab001461022e578063f6c0092714610241578063f7c618c11461026e576100dd565b806398d5fdca146101c6578063d861af06146101db578063df791e50146101fb576100dd565b806371f99a8b116100bb57806371f99a8b1461014f57806375b451791461017c5780638aec85421461018f5780638da5cb5b146101a4576100dd565b80632aea50fe146100e25780633f92a339146101045780634e71d92d1461013a575b600080fd5b3480156100ee57600080fd5b506101026100fd3660046115c0565b610283565b005b34801561011057600080fd5b5061012461011f3660046114eb565b610454565b604051610131919061168d565b60405180910390f35b34801561014657600080fd5b506101026104b9565b34801561015b57600080fd5b5061016f61016a3660046115c0565b61057e565b6040516101319190611682565b61010261018a366004611558565b610610565b34801561019b57600080fd5b50610124610b27565b3480156101b057600080fd5b506101b9610b3a565b6040516101319190611617565b3480156101d257600080fd5b50610124610b49565b3480156101e757600080fd5b506101246101f63660046115c0565b610b4f565b61010261020936600461151d565b610bec565b34801561021a57600080fd5b506101026102293660046114eb565b610fa6565b61010261023c366004611558565b61109c565b34801561024d57600080fd5b5061026161025c3660046115c0565b611421565b6040516101319190611807565b34801561027a57600080fd5b506101b9611490565b60008181526004602090815260408083208054600690935290832090925b828110156104465760008482815481106102cb57634e487b7160e01b600052603260045260246000fd5b600091825260208220600590910201546001600160a01b031691506102ee610b49565b9050600086848154811061031257634e487b7160e01b600052603260045260246000fd5b9060005260206000209060050201600301548261032f919061188f565b9050600061033b610b49565b9050600088868154811061035f57634e487b7160e01b600052603260045260246000fd5b9060005260206000209060050201600401548261037c919061188f565b9050600061038a8285611857565b9050600088600301548661039e919061188f565b905060008960040154856103b2919061188f565b905060006103c08284611857565b905060006103ce828661186f565b905060008c60050154826103e2919061188f565b6001600160a01b038c166000908152600560205260409020549091506104088282611857565b6001600160a01b03909c1660009081526005602052604090209b909b55508a995061043e98508997506118c59650505050505050565b9150506102a1565b506000600590910155505050565b6000816001600160a01b0316836001600160a01b031611156104a05782826040516020016104839291906115f0565b6040516020818303038152906040528051906020012090506104b3565b81836040516020016104839291906115f0565b92915050565b33600090815260056020526040812054906104d2610b49565b905060006104e0828461186f565b60015460405163a9059cbb60e01b81529192506001600160a01b031690819063a9059cbb906105159033908690600401611669565b602060405180830381600087803b15801561052f57600080fd5b505af1158015610543573d6000803e3d6000fd5b505050506040513d601f19601f820116820180604052508101906105679190611599565b505033600090815260056020526040812055505050565b6000805b6000838152600460205260409020548110156106055760008381526004602052604090208054339190839081106105c957634e487b7160e01b600052603260045260246000fd5b60009182526020909120600590910201546001600160a01b031614156105f357600191505061060b565b806105fd816118c5565b915050610582565b50600090505b919050565b6040516370a0823160e01b8152849084906000906001600160a01b038416906370a0823190610643903390600401611617565b60206040518083038186803b15801561065b57600080fd5b505afa15801561066f573d6000803e3d6000fd5b505050506040513d601f19601f8201168201806040525081019061069391906115d8565b90506000826001600160a01b03166370a08231336040518263ffffffff1660e01b81526004016106c39190611617565b60206040518083038186803b1580156106db57600080fd5b505afa1580156106ef573d6000803e3d6000fd5b505050506040513d601f19601f8201168201806040525081019061071391906115d8565b90508186111561073e5760405162461bcd60e51b8152600401610735906116ea565b60405180910390fd5b604051636eb1769f60e11b815286906001600160a01b0386169063dd62ed3e9061076e903390309060040161162b565b60206040518083038186803b15801561078657600080fd5b505afa15801561079a573d6000803e3d6000fd5b505050506040513d601f19601f820116820180604052508101906107be91906115d8565b10156107dc5760405162461bcd60e51b8152600401610735906117c3565b808511156107fc5760405162461bcd60e51b8152600401610735906116ea565b604051636eb1769f60e11b815285906001600160a01b0385169063dd62ed3e9061082c903390309060040161162b565b60206040518083038186803b15801561084457600080fd5b505afa158015610858573d6000803e3d6000fd5b505050506040513d601f19601f8201168201806040525081019061087c91906115d8565b101561089a5760405162461bcd60e51b8152600401610735906117c3565b6040516323b872dd60e01b81526001600160a01b038516906323b872dd906108ca90339030908b90600401611645565b602060405180830381600087803b1580156108e457600080fd5b505af11580156108f8573d6000803e3d6000fd5b505050506040513d601f19601f8201168201806040525081019061091c9190611599565b506040516323b872dd60e01b81526001600160a01b038416906323b872dd9061094d90339030908a90600401611645565b602060405180830381600087803b15801561096757600080fd5b505af115801561097b573d6000803e3d6000fd5b505050506040513d601f19601f8201168201806040525081019061099f9190611599565b5060006109ac8989610454565b90506109b78161057e565b15610a3b5760006109c782610b4f565b600083815260046020526040812080549293509091839081106109fa57634e487b7160e01b600052603260045260246000fd5b90600052602060002090600502019050888160030154610a1a9190611857565b60038201556004810154610a2f908990611857565b60049091015550610ae3565b6000818152600460208181526040808420815160a0810183523381526001600160a01b038f81168286019081528f8216948301948552606083018f8152608084018f8152855460018181018855968b52979099209351600590970290930180549683166001600160a01b031997881617815590519381018054948316948716949094179093559251600283018054919094169416939093179091559051600382015591519101555b60008181526006602052604090206003810154610b01908990611857565b60038201556004810154610b16908890611857565b600490910155505050505050505050565b3360009081526005602052604090205490565b6000546001600160a01b031681565b6103e890565b6000805b600083815260046020526040902054811015610bd3576000838152600460205260409020805433919083908110610b9a57634e487b7160e01b600052603260045260246000fd5b60009182526020909120600590910201546001600160a01b03161415610bc157905061060b565b80610bcb816118c5565b915050610b53565b5060405162461bcd60e51b8152600401610735906116be565b604051636eb1769f60e11b8152839082906001600160a01b0383169063dd62ed3e90610c1e903390309060040161162b565b60206040518083038186803b158015610c3657600080fd5b505afa158015610c4a573d6000803e3d6000fd5b505050506040513d601f19601f82011682018060405250810190610c6e91906115d8565b1015610c8c5760405162461bcd60e51b8152600401610735906117c3565b6040516370a0823160e01b815283906000906001600160a01b038416906370a0823190610cbd903390600401611617565b60206040518083038186803b158015610cd557600080fd5b505afa158015610ce9573d6000803e3d6000fd5b505050506040513d601f19601f82011682018060405250810190610d0d91906115d8565b905080841115610d2f5760405162461bcd60e51b8152600401610735906116ea565b6040516370a0823160e01b81526000906001600160a01b038416906370a0823190610d5e903090600401611617565b60206040518083038186803b158015610d7657600080fd5b505afa158015610d8a573d6000803e3d6000fd5b505050506040513d601f19601f82011682018060405250810190610dae91906115d8565b90506000610dba610b49565b90506000610dc6610b49565b9050600087610dd5838561186f565b610ddf919061188f565b9050600060646002546064610df491906118ae565b610dfe908461188f565b610e08919061186f565b905084811115610e2a5760405162461bcd60e51b815260040161073590611742565b6040516323b872dd60e01b81526001600160a01b038916906323b872dd90610e5a90339030908e90600401611645565b602060405180830381600087803b158015610e7457600080fd5b505af1158015610e88573d6000803e3d6000fd5b505050506040513d601f19601f82011682018060405250810190610eac9190611599565b5060405163a9059cbb60e01b81526001600160a01b0388169063a9059cbb90610edb9033908590600401611669565b602060405180830381600087803b158015610ef557600080fd5b505af1158015610f09573d6000803e3d6000fd5b505050506040513d601f19601f82011682018060405250810190610f2d9190611599565b506000610f3a8c8c610454565b600081815260066020526040902060025491925090606490610f5c8d8861188f565b610f66919061188f565b610f70919061186f565b8160050154610f7f9190611857565b6005820181905560035411610f9757610f9782610283565b50505050505050505050505050565b6000546001600160a01b03163314610fd05760405162461bcd60e51b815260040161073590611779565b6000610fdc8383610454565b6000818152600660205260409020549091501561100b5760405162461bcd60e51b815260040161073590611696565b6040805160c0810182528281526001600160a01b0394851660208083019182529486168284019081526000606084018181526080850182815260a0860183815297835260069098529490209251835590516001830180549188166001600160a01b03199283161790559051600283018054919097169116179094555160038401559051600483015551600590910155565b6040516370a0823160e01b8152849084906000906001600160a01b038416906370a08231906110cf903090600401611617565b60206040518083038186803b1580156110e757600080fd5b505afa1580156110fb573d6000803e3d6000fd5b505050506040513d601f19601f8201168201806040525081019061111f91906115d8565b90506000826001600160a01b03166370a08231306040518263ffffffff1660e01b815260040161114f9190611617565b60206040518083038186803b15801561116757600080fd5b505afa15801561117b573d6000803e3d6000fd5b505050506040513d601f19601f8201168201806040525081019061119f91906115d8565b9050818611156111c15760405162461bcd60e51b815260040161073590611742565b808511156111e15760405162461bcd60e51b815260040161073590611742565b60006111ed8989610454565b905060006111fa82610b4f565b6000838152600460205260408120805492935090918390811061122d57634e487b7160e01b600052603260045260246000fd5b9060005260206000209060050201905088816003015461124d9190611857565b60038201556004810154611262908990611857565b6004820155600381015489111561128b5760405162461bcd60e51b815260040161073590611719565b87816004015410156112af5760405162461bcd60e51b815260040161073590611719565b60405163a9059cbb60e01b81526001600160a01b0388169063a9059cbb906112dd9033908d90600401611669565b602060405180830381600087803b1580156112f757600080fd5b505af115801561130b573d6000803e3d6000fd5b505050506040513d601f19601f8201168201806040525081019061132f9190611599565b5060405163a9059cbb60e01b81526001600160a01b0387169063a9059cbb9061135e9033908c90600401611669565b602060405180830381600087803b15801561137857600080fd5b505af115801561138c573d6000803e3d6000fd5b505050506040513d601f19601f820116820180604052508101906113b09190611599565b508881600301546113c191906118ae565b600382015560048101546113d69089906118ae565b6004820155600083815260066020526040902060038101546113f9908b906118ae565b6003820155600481015461140e908a906118ae565b6004909101555050505050505050505050565b61142961149f565b50600090815260066020908152604091829020825160c0810184528154815260018201546001600160a01b0390811693820193909352600282015490921692820192909252600382015460608201526004820154608082015260059091015460a082015290565b6001546001600160a01b031681565b6040805160c081018252600080825260208201819052918101829052606081018290526080810182905260a081019190915290565b80356001600160a01b038116811461060b57600080fd5b600080604083850312156114fd578182fd5b611506836114d4565b9150611514602084016114d4565b90509250929050565b600080600060608486031215611531578081fd5b61153a846114d4565b9250611548602085016114d4565b9150604084013590509250925092565b6000806000806080858703121561156d578081fd5b611576856114d4565b9350611584602086016114d4565b93969395505050506040820135916060013590565b6000602082840312156115aa578081fd5b815180151581146115b9578182fd5b9392505050565b6000602082840312156115d1578081fd5b5035919050565b6000602082840312156115e9578081fd5b5051919050565b6bffffffffffffffffffffffff19606093841b811682529190921b16601482015260280190565b6001600160a01b0391909116815260200190565b6001600160a01b0392831681529116602082015260400190565b6001600160a01b039384168152919092166020820152604081019190915260600190565b6001600160a01b03929092168252602082015260400190565b901515815260200190565b90815260200190565b6020808252600e908201526d191d5c1b1a58d85d19481c1bdbdb60921b604082015260600190565b6020808252601290820152712932b1b2b4b83a103737ba103337bab7321760711b604082015260600190565b60208082526015908201527424b739bab33334b1b4b2b73a103130b630b731b29760591b604082015260600190565b6020808252600f908201526e616d6f756e742069732077726f6e6760881b604082015260600190565b60208082526017908201527f496e73756666696369656e74206c69717569646974792e000000000000000000604082015260600190565b6020808252602a908201527f4f6e6c7920636f6e7472616374206f776e65722063616e2063616c6c207468696040820152693990333ab731ba34b7b760b11b606082015260800190565b60208082526024908201527f546f6b656e20616c6c6f77616e6365206e6f742073657420666f722065786368604082015263616e676560e01b606082015260800190565b815181526020808301516001600160a01b039081169183019190915260408084015190911690820152606080830151908201526080808301519082015260a0918201519181019190915260c00190565b6000821982111561186a5761186a6118e0565b500190565b60008261188a57634e487b7160e01b81526012600452602481fd5b500490565b60008160001904831182151516156118a9576118a96118e0565b500290565b6000828210156118c0576118c06118e0565b500390565b60006000198214156118d9576118d96118e0565b5060010190565b634e487b7160e01b600052601160045260246000fdfea26469706673582212207f70642cee82d5f976379e14bde58023d0f8d59abfbf372dd1ba89225efa62bd64736f6c63430008000033",
  "immutableReferences": {},
  "source": "pragma solidity ^0.8.0;\npragma experimental ABIEncoderV2;\n\nimport \"./interfaces/ERC20Interface.sol\";\n\ncontract Defi321 {\n\n    address public owner;\n    address public rewardToken;\n    uint feeRate = 2;\n    // It means one thouthousand US dollers\n    uint FeePoolLimit = 1000;\n\n    modifier onlyOwner() {\n        require(msg.sender == owner, \"Only contract owner can call this function\");\n        _;\n    }\n\n    constructor(address _rewardToken) public {\n        owner = msg.sender;\n        rewardToken = _rewardToken;\n    }\n\n    struct Receipt {\n        address sender;\n        address tokenA;\n        address tokenB;\n        uint tokenAAmount;\n        uint tokenBAmount;\n    }\n\n    mapping(bytes32 => Receipt[]) pairReceipt;\n\n    mapping(address => uint) rewards;\n\n    struct Pool {\n        bytes32 id;\n        address tokenA;\n        address tokenB;\n        uint totalA;\n        uint totalB;\n        uint currentFee;\n    }\n\n    mapping(bytes32 => Pool) pools;\n\n    function swap(address _fromTokenAddress, address _toTokenAddress, uint _amount) public payable {\n        ERC20Interface _fromToken = ERC20Interface(_fromTokenAddress);\n        require(_fromToken.allowance(msg.sender, address(this)) >= _amount, \"Token allowance not set for exchange\");\n        ERC20Interface _toToken = ERC20Interface(_toTokenAddress);\n\n        uint256 _fromTokenBalance = _fromToken.balanceOf(msg.sender);\n        require(_amount <= _fromTokenBalance, \"Insufficient balance.\");\n        uint256 _toTokenBalance = _toToken.balanceOf(address(this));\n\n        uint _currentFromTokenPrice = getPrice();\n        uint _currentToTokenPrice = getPrice();\n        uint _targetAmount = _currentFromTokenPrice / _currentToTokenPrice * _amount;\n\n        uint _resultAmount = _targetAmount * (100 - feeRate) / 100;\n        require(_resultAmount <= _toTokenBalance, \"Insufficient liquidity.\");\n\n        _fromToken.transferFrom(msg.sender, address(this), _amount);\n        _toToken.transfer(msg.sender, _resultAmount);\n\n        bytes32 pairId = getPairId(_fromTokenAddress, _toTokenAddress);\n        Pool storage pool = pools[pairId];\n        pool.currentFee = pool.currentFee + _currentToTokenPrice * _amount * feeRate / 100;\n\n        if (pool.currentFee >= FeePoolLimit) {\n            calculateReward(pairId);\n        }\n    }\n\n    function provideLiquidity(address _tokenAAddress, address _tokenBAddress, uint _amountA, uint _amountB) public payable {\n        ERC20Interface _tokenA = ERC20Interface(_tokenAAddress);\n        ERC20Interface _tokenB = ERC20Interface(_tokenBAddress);\n\n        uint256 _tokenABalance = _tokenA.balanceOf(msg.sender);\n        uint256 _tokenBBalance = _tokenB.balanceOf(msg.sender);\n        require(_amountA <= _tokenABalance, \"Insufficient balance.\");\n        require(_tokenA.allowance(msg.sender, address(this)) >= _amountA, \"Token allowance not set for exchange\");\n        require(_amountB <= _tokenBBalance, \"Insufficient balance.\");\n        require(_tokenB.allowance(msg.sender, address(this)) >= _amountB, \"Token allowance not set for exchange\");\n\n        _tokenA.transferFrom(msg.sender, address(this), _amountA);\n        _tokenB.transferFrom(msg.sender, address(this), _amountB);\n\n        bytes32 pairId = getPairId(_tokenAAddress, _tokenBAddress);\n\n        if (existOwnReceipt(pairId)) {\n            uint index = getOwnReceiptIndex(pairId);\n            Receipt storage receipt = pairReceipt[pairId][index];\n            receipt.tokenAAmount = receipt.tokenAAmount  + _amountA;\n            receipt.tokenBAmount = receipt.tokenBAmount  + _amountB;\n        } else {\n            pairReceipt[pairId].push(Receipt(\n                msg.sender,\n                _tokenAAddress,\n                _tokenBAddress,\n                _amountA,\n                _amountB\n            ));\n        }\n\n        Pool storage pool = pools[pairId];\n        pool.totalA = pool.totalA + _amountA;\n        pool.totalB = pool.totalB + _amountB;\n    }\n\n    function getPairId(address _tokenA, address _tokenB) public pure returns (bytes32) {\n        if (_tokenA > _tokenB) {\n            // INFO: \n            return keccak256(abi.encodePacked(_tokenA, _tokenB));\n        } else {\n            return keccak256(abi.encodePacked(_tokenB, _tokenA));\n        }\n    }\n\n    function withdrawLiquidity(address _tokenAAddress, address _tokenBAddress, uint _amountA, uint _amountB) public payable {\n        ERC20Interface _tokenA = ERC20Interface(_tokenAAddress);\n        ERC20Interface _tokenB = ERC20Interface(_tokenBAddress);\n\n        uint256 _tokenABalance = _tokenA.balanceOf(address(this));\n        uint256 _tokenBBalance = _tokenB.balanceOf(address(this));\n        require(_amountA <= _tokenABalance, \"Insufficient liquidity.\");\n        require(_amountB <= _tokenBBalance, \"Insufficient liquidity.\");\n        bytes32 pairId = getPairId(_tokenAAddress, _tokenBAddress);\n\n        uint index = getOwnReceiptIndex(pairId);\n        Receipt storage receipt = pairReceipt[pairId][index];\n        receipt.tokenAAmount = receipt.tokenAAmount  + _amountA;\n        receipt.tokenBAmount = receipt.tokenBAmount  + _amountB;\n\n        require(receipt.tokenAAmount >= _amountA, \"amount is wrong\");\n        require(receipt.tokenBAmount >= _amountB, \"amount is wrong\");\n\n        _tokenA.transfer(msg.sender, _amountA);\n        _tokenB.transfer(msg.sender, _amountB);\n\n        receipt.tokenAAmount = receipt.tokenAAmount - _amountA;\n        receipt.tokenBAmount = receipt.tokenBAmount - _amountB;\n\n        Pool storage pool = pools[pairId];\n        pool.totalA = pool.totalA - _amountA;\n        pool.totalB = pool.totalB - _amountB;\n    }\n\n    function claim() public {\n        uint amount = rewards[msg.sender];\n        uint _ethPrice = getPrice();\n        uint rewardAmount = amount / _ethPrice;\n        ERC20Interface _token = ERC20Interface(rewardToken);\n        _token.transfer(msg.sender, rewardAmount);\n        rewards[msg.sender] = 0;\n    }\n\n    function calculateReward(bytes32 pairId) public {\n\n        Receipt[] storage pair = pairReceipt[pairId];\n        uint pairLength = pair.length;\n        Pool storage pool = pools[pairId];\n\n        for (uint i = 0; i < pairLength; i++) {\n\n            address sender = pair[i].sender;\n            uint priceA = getPrice();\n            uint balanceA = priceA * pair[i].tokenAAmount;\n\n            uint priceB = getPrice();\n            uint balanceB = priceB * pair[i].tokenBAmount;\n            uint balance = balanceA + balanceB;\n\n            uint poolBalanceA = priceA * pool.totalA;\n            uint poolBalanceB = priceB * pool.totalB;\n            uint poolBalance = poolBalanceA + poolBalanceB;\n\n            uint rate = balance / poolBalance;\n            uint rewardAmount = rate * pool.currentFee;\n\n            uint amount = rewards[sender];\n            rewards[sender] = amount + rewardAmount;\n        }\n\n        pool.currentFee = 0;\n    }\n\n    function getPrice() public view returns (uint256) {\n        return 1000;\n    }\n\n    function createPool(address _addressA, address _addressB) external onlyOwner {\n        bytes32 pairId = getPairId(_addressA, _addressB);\n\n        if (pools[pairId].id != 0) {\n            revert(\"duplicate pool\");\n        }\n\n        Pool memory newPool = Pool({\n            id: pairId,\n            tokenA: _addressA,\n            tokenB: _addressB,\n            totalA: 0,\n            totalB: 0,\n            currentFee: 0\n        });\n        pools[pairId] = newPool;\n    }\n\n    function existOwnReceipt(bytes32 pairId) public view returns (bool) {\n        for (uint i = 0; i < pairReceipt[pairId].length; i++) {\n            if (pairReceipt[pairId][i].sender == msg.sender) {\n                return true;\n            }\n        }\n        return false;\n    }\n\n    function getOwnReceiptIndex(bytes32 pairId) public view returns (uint) {\n        for (uint i = 0; i < pairReceipt[pairId].length; i++) {\n            if (pairReceipt[pairId][i].sender == msg.sender) {\n                return i;\n            }\n        }\n        revert(\"Receipt not found.\");\n    }\n\n    function getCurrentReward() public view returns (uint) {\n        return rewards[msg.sender];\n    }\n\n    function getPool(bytes32 pairId) public view returns (Pool memory) {\n        return pools[pairId];\n    }\n}",
  "sourcePath": "/Users/suzukimasayuki/.ghq/github.com/s-ekai/defi321/contracts/Defi321.sol",
  "compiler": {
    "name": "solc",
    "version": "0.8.0+commit.c7dfd78e.Emscripten.clang"
  },
  "schemaVersion": "3.4.13",
  "updatedAt": "2023-04-04T12:40:55.436Z",
  "networkType": "ethereum",
  "devdoc": {
    "kind": "dev",
    "methods": {},
    "version": 1
  },
  "userdoc": {
    "kind": "user",
    "methods": {},
    "version": 1
  }
}